:020000040800F2
:10000000500A0020E5020008DD3B0008D53B00084F
:10001000D93B0008FD2100088947000800000000C6
:10002000000000000000000000000000553F000834
:100030000122000800000000E13B0008593F0008D1
:10004000FF020008FF020008FF020008FF0200088C
:10005000FF020008FF020008FF020008FF0200087C
:10006000FF02000805220008FF020008FF02000846
:10007000FF020008FF020008FF020008FF0200085C
:10008000FF020008FF020008FF020008FF0200084C
:10009000FF020008FF020008FF020008FF0200083C
:1000A000FF020008FF020008FF020008FF0200082C
:1000B000FF020008FF020008FF020008FF0200081C
:1000C000FF020008FF020008DD3C0008FF020008F4
:1000D000FF020008FF020008FF020008FF020008FC
:1000E000FF020008FF020008FF020008FF020008EC
:1000F000FF020008FF020008FF020008FF020008DC
:10010000FF020008FF020008FF020008FF020008CB
:10011000FF020008FF020008FF020008FF020008BB
:10012000FF020008FF020008FF020008FF020008AB
:10013000FF020008FF020008FF02000800F002F8BA
:1001400000F0C0F814A696E8000CB244B344DA45B7
:1001500001D100F0B7F8BAE80F000FA696E830001A
:10016000A5EB040504EB0607AAEB0704A7F10107BA
:100170004FEA15154FEA3414A4F10104AC4201D33F
:1001800000F0A0F813F0010F18BFFB1A43F00103B1
:1001900000F001F8DBE718471CD301003CD3010055
:1001A0000A4410F8014B14F00F0508BF10F8015B6A
:1001B000240908BF10F8014B6D1E05D010F8013B53
:1001C0006D1E01F8013BF9D1641E03D0641E01F8D5
:1001D000015BFBD19142E4D37047000070470000FF
:1001E0000023002400250026103A28BF78C1FBD840
:1001F000520728BF30C148BF0B6070476E2900F01E
:10020000E284702900F04F86662918F089816529FB
:1002100018F08681672918F08381612918F082819E
:1002200003681B0A28BF41F08001692900F0C281E0
:10023000642900F0BF81752900F0BC816F2900F0AE
:10024000DD85782900F01B86E92900F07785E4290F
:1002500000F07485F52900F07185EF2900F0DA854A
:10026000F82900F01A860368DB0928BF41F08001F5
:10027000632900F0E784732900F0EC84E32901F09E
:100280001B82F32901F02082002070471FB518F06F
:10029000DBF89DE8030000F0EBFB01F013FB04002A
:1002A0000020002118F074F8401C6060002000213C
:1002B00018F058F8E06001F00FFA1FBD10B501F01A
:1002C00074FA10BD01F0D0FA1146FFF7DFFF15F008
:1002D00011FD01F05FFD03B4FFF7F0FF03BC01F077
:1002E000CBFD00000948804709480047FEE7FEE7CC
:1002F000FEE7FEE7FEE7FEE7FEE7FEE7FEE7FEE7D6
:1003000004480549054A064B704700005D3F000858
:100310003D01000850040020500A00205006002033
:100320005006002070B5064600F086FB056806F111
:100330000B0020F00704B4429CBF002070BD2B4688
:100340006A68BAB11068A04210D304F1080188426B
:100350003CBF5068586007D351681019416011685C
:10036000091B016058601460101D70BD134652686F
:10037000002AE7D12146284600F066FB0028DED19E
:1003800070BD70B50446051F00F056FB0068002CD8
:1003900014BF446870BD002C18BFAC423CBF20465F
:1003A0006468F8D301680A18AA4218BF456003D1EF
:1003B0002A6805461144016028684119A1421CBF02
:1003C0006C6070BD6168696021680844286070BD18
:1003D00053EA020C00F069802DE9F04B4FF0000663
:1003E000002B1FBFB3FA83F503FA05F424FA05F6D0
:1003F0005E4012BF1643B2FA82F502FA05F4C5F167
:1004000020051EBF22FA05FC44EA0C04203556EAFA
:10041000044C4FEA144418BF641C4FF000084FF01E
:100420000009904271EB030C39D3002919BFB1FACE
:1004300081F701FA07F6B0FA80F700FA07F6C7F17C
:1004400020071EBF20FA07FC46EA0C062037B6FB41
:10045000F4FCA7EB0507103F07F01F0BCBF12006BC
:100460002CFA06F60CFA0BFB44BFB3460026202FED
:10047000A4BF5E464FF0000B5BEA060C08BF4FF0CE
:10048000010B19EB0B0948EB0608ABFB027C06FBE2
:1004900002CC0BFB03CCC01B71EB0C01C1E70B467C
:1004A000024641464846BDE8F08B13B5084318BFE5
:1004B0004FF0FF300146AFF30080BDE81C407047AD
:1004C0007CB51D4616460C00009007D04142A14263
:1004D00002D32044401E01E04FF0FF30064B7B4426
:1004E0002A4669460190304600F087FB002C02D076
:1004F000009A002111707CBD3F0700000FB4044931
:1005000010B503AA029800F0A9FB10BC5DF814FB1B
:100510001402002070B5044685690068C10601D543
:10052000302600E02026C00707D070BDD4E90121A5
:1005300030469047206A401C20626D1EF6D570BD83
:1005400070B5044685690078C00707D170BDD4E94D
:10055000012120209047206A401C20626D1EF6D5A4
:1005600070BD70B50C460546012A05D02878800676
:1005700000D5EA69002302E0012305E05B1C9342F9
:1005800002D2E05C0028F9D1A869E618C01AA86177
:10059000286A184428622846FFF7BCFF04E0D5E922
:1005A000012114F8010B9047B442F8D32846FFF715
:1005B000C7FF70BD2DE9F04106460024106875297B
:1005C000314616A510D000F093FA002802DA404216
:1005D00013A507E031688A0701D512A502E0490793
:1005E00004D511A5012401E000F08BFA00210A22B4
:1005F00006F1240709E0B0FBF2FCB0FBF2F302FBCA
:100600001C00303078541846491C0028F3D123468A
:100610002A463046BDE8F04100F07CBA00000000F8
:100620002D0000002B000000200000002DE9F05FED
:10063000894604464FF0000ADFF874B1FB44C0F865
:1006400020A02046E1688847002874D0252806D0DD
:10065000D4E901219047206A401C2062F1E700267E
:100660005F462046E16888472028054607DB312D94
:1006700005D2781910F8200C08B10643F1E7B0074D
:1006800001D526F00406C4F81CA00027C4F818A061
:100690002A2D09D0284617F00FFE38B304EB87083F
:1006A000303DC8F8185019E059F8041B204604EBF7
:1006B00087029161E1688847012F054618D1E069FA
:1006C000002820DA26F020061DE0D8F8180000EBFC
:1006D000800005EB40003038C8F818002046E1687B
:1006E0008847054617F0E8FD0028EED1012F0AD013
:1006F0002E2D08D12046E16888477F1C0546022F31
:1007000046F02006C4DBA069002803DA404246F028
:100710000106A061F00701D026F010066C2D0BD069
:10072000682D09D04C2D39D06A2D35D0742D35D097
:100730007A2D33D016E038E0E1682F46204688470E
:10074000B842054609D16C2F26D04FF48060E1688D
:10075000064320468847054604E06C2F1AD04FF424
:10076000807006430DB3A5F14100192802D8203549
:1007700046F400664A462946204626604E46FFF764
:100780003DFD80B101280BD0F61D26F0070000F1D9
:10079000080956E74020E4E78020D8E70020D6E7A4
:1007A00006F104094DE7284652E7206ABDE8F09FAC
:1007B000E87E0100032A40F2308010F0030C00F0C4
:1007C000158011F8013BBCF1020F624498BF11F88B
:1007D00001CB00F8013B38BF11F8013BA2F1040244
:1007E00098BF00F801CB38BF00F8013B11F00303BC
:1007F00000F06780083AC0F0088051F8043B083ADE
:1008000051F804CBA0E80810F5E7121D5CBF51F8C1
:10081000043B40F8043BAFF30080D20724BF11F83B
:10082000013B11F801CB48BF11F8012B24BF00F8A0
:10083000013B00F801CB48BF00F8012B7047431A79
:1008400028BF9A427FF6B6AF10441144032A40F203
:10085000268010F0030F1EBF11F8013D521E00F854
:10086000013D10F0030F7FF4F6AF11F0030300F029
:100870006D80083AC0F00B8051F8043D083A51F8F9
:1008800004CD40F8043D40F804CDFFF7F3BF121D3E
:100890005CBF51F8043D40F8043DAFF30080D2073F
:1008A00024BF11F8013D11F801CD48BF11F8012C0A
:1008B00024BF00F8013D00F801CD48BF00F8012C2D
:1008C000704710B5203AC0F00B80B1E81850A0E88E
:1008D0001850B1E81850A0E81850203ABFF4F5AF0E
:1008E0005FEA027C24BFB1E81850A0E8185044BF6A
:1008F00018C918C0BDE810405FEA827C24BF51F8D7
:10090000043B40F8043B08BF7047D20728BF31F8CA
:10091000023B48BF11F8012B28BF20F8023B48BF1B
:1009200000F8012B7047431A28BF9A427FF6C9AFDF
:100930001044114410F0030F1EBF11F8013D521E68
:1009400000F8013D10F0030F7FF4F6AF103AC0F04D
:100950000A8010B531E9185020E91850103ABFF458
:10096000F9AFBDE81040530724BF31E9081020E972
:10097000081044BF51F8043D40F8043D12F0030F45
:1009800008BF7047D20728BF31F8023D48BF11F8B1
:10099000012C28BF20F8023D48BF00F8012C704709
:1009A0004FF000020429C0F0128010F0030C00F098
:1009B0001B80CCF1040CBCF1020F18BF00F8012B16
:1009C000A8BF20F8022BA1EB0C0100F00DB85FEAE4
:1009D000C17C24BF00F8012B00F8012B48BF00F8B0
:1009E000012B70474FF0000200B51346944696461F
:1009F000203922BFA0E80C50A0E80C50B1F1200132
:100A0000BFF4F7AF090728BFA0E80C5048BF0CC0DF
:100A10005DF804EB890028BF40F8042B08BF70473D
:100A200048BF20F8022B11F0804F18BF00F8012BAF
:100A3000704770477047704700487047C4020020F5
:100A4000704770477047704738B504460A46002023
:100A50006946AFF30080002808BF38BD0246009900
:100A6000204600F033FA012038BD012000F0F4BE2A
:100A7000F8B5AFF30080054600200C460C2000BFFF
:100A80000646A819A0420DD9324669460020AFF3A8
:100A90000080070008BF00F0DFFE0098A04218BFEA
:100AA0000546C419FFF7C8FF05600746F01D20F092
:100AB00007004619284600F00AF8B44208BFF8BDFE
:100AC000A21B31463868BDE8F84000F0FFB90021AC
:100AD0000160416070470C20704710B500F0F2F9DA
:100AE000006810BD10B5044600F0ECF9046010BDBC
:100AF00009684A0501D540B27047C905FCD500B266
:100B0000704709684A0501D5C0B27047C905FCD5D0
:100B100080B270472DE9F0470D469946924604464B
:100B200000F124080168880604D5E06921F010016D
:100B3000216000E00120A84201DD471B00E0002702
:100B4000A1697A1902EB0900081AA0612078C00691
:100B500002D42046FFF7DEFC002608E0D4E901219C
:100B60001AF806009047206A401C761C20624E4509
:100B7000F4DB2078C0060AD52046FFF7CBFC06E060
:100B8000D4E9012130209047206A401C2062381EA1
:100B9000A7F10107F4DC07E0D4E9012118F805000A
:100BA0009047206A401C2062281EA5F10105F3DC55
:100BB0002046FFF7C5FC2078000602D50220BDE8DC
:100BC000F0870120FBE711680268006A530501D530
:100BD00008700AE0D30501D5088006E0130603D5A6
:100BE000C217C1E9000200E0086001207047000060
:100BF00001694A1C02610878704700B58FB0CDE9E1
:100C000001310021059105497944CDE903101146D0
:100C10006846FFF70BFD0FB000BD0000E5FFFFFFCA
:100C2000D1E900239A4202D2531C0B601070704726
:100C300010B5436913B1AFF3008001E0FFF791FCF9
:100C4000012010BD127800F124010A7000224A70C0
:100C50000122EDE711684FF0FF32E9E7074B70B56D
:100C60000D467B44FFF7C9FF0446284600F030FDDF
:100C700010B14FF0FF3070BD204670BD817601008D
:100C80002DE9FF5F15468A460446DFF8AC80F8443C
:100C90000027D8E900103E46CDE9001010E05AF8D0
:100CA00026106A4602A800F0B3FD411C07D0217847
:100CB000890603D5E269391891420DD80744761C9C
:100CC0002078800602D5E069B84205DDAE42E6DB59
:100CD0005AF826000028E2D1A069C01BA061204676
:100CE000FFF718FCD8E90010CDE90010002017E04C
:100CF0005AF828106A4602A800F08AFDB0F1FF3FBA
:100D000081460BD000250DF1080B05E0D4E9012147
:100D10001BF8050090476D1C4D45F7D308F1010005
:100D2000B0428046E4DB206A384420622046FFF768
:100D300007FCBDE8FF9F00008A7A01002DE9F04121
:100D40008046D21D22F007020025D2E90002F529D3
:100D500015A614D0011E72F1000106DA0023D0EBB3
:100D6000030063EB020211A608E0D8F800108B071D
:100D700001D50FA602E0490701D50EA601251146AF
:100D8000002408F1240704E000F0BAF830323A55A4
:100D9000641C50EA0102F7D12B46324621464046F8
:100DA000BDE8F041FFF7B6BE000000002D000000D6
:100DB0002B0000002000000030B4002100F12404CA
:100DC00008E002F00705D208303542EA4372DB083A
:100DD0006554491C52EA0305F3D10468002310A2AC
:100DE000250708D504F020040C4304D0C46901236E
:100DF0000CA2641EC46130BCFFF78CBE10B5044663
:100E000021461068FFF77DFE02462046BDE81040EF
:100E10000023D1E7D21D22F00701D1E90023CBE75F
:100E20000000000030000000F0B40D460188090504
:100E300002D5214C7C4402E01F4C7C440E3400213E
:100E400000F1240608E002F00F071209E75D42EA0C
:100E500003721B097754491C52EA0307F3D1027845
:100E60000023120704D5702D06D009B102231134D6
:100E70002246F0BCFFF74EBE01231034F8E770B5F0
:100E800004460D4621461068FFF73BFE0246294600
:100E90002046BDE870400023C6E7D21D22F00703BC
:100EA000D3E90023C0E70368126843F0200303601E
:100EB0000823C3610023B7E7EC78010000487047BE
:100EC000BC02002000487047BC0200200346406876
:100ED0008C46002818BF88423CBF03464068F8D3C0
:100EE00018681844884207D00CF1030020F007006E
:100EF000001D411A521A0146081D0A60FFF741BA47
:100F000030B5B0F10A0271F100034FEA900E4EEADB
:100F1000817EB0EB0E0061EB91014FEA101E4EEAAC
:100F2000017E10EB0E0041EB11114FEA102E4EEA3C
:100F3000016E10EB0E0041EB11214FEA104E4EEA0C
:100F4000014E10EB0E0041EB1141401841F1000140
:100F50004FEAD00040EA41704FEAD1014FEA8104E4
:100F600044EA907410EB800544EB01046D1944EBE6
:100F70000404521BA3414FF0000348BF0A3200D5BE
:100F800030BD401C41F1000130BD2DE9FF4F0C4642
:100F90001E464FF0FF378BB0D2E90001DDF86080CC
:100FA0000A908A46C1F30A5505B93D460021084614
:100FB0004FF00000BAF1000F00F4400005DA00EB3A
:100FC00080004FF4400101EA50004FEA9059B9F116
:100FD000010F00DDB9460A9850EA4A000ED044F6E7
:100FE0001050A5F2FF3545432F14B8F1000F1ED065
:100FF0007542291E1EDDC9F100021CE0B8F1010F87
:101000004FF0000001D0302103E0F24305E021540D
:10101000401CB042FBDB30460022002121540B99DA
:10102000C1F80880C1E900200FB0BDE8F08FBD1BFA
:101030006D1CDEE74A4600DA694206A800F086FC2D
:1010400006AB93E8070003AB83E8070050460A9914
:1010500015F0D8F98DE80700A0F500501F38009072
:101060000398002D0ADD42F21F014A46084400237E
:1010700003A90390684615F041FC09E0A0F5005073
:101080004A461F38002303A90390684615F04BFC1D
:101090008DE807000004000C03D04FF0FF3041083A
:1010A00000E01046B8F1000F03D000220092154670
:1010B0001EE0751E05D4FFF723FF303262556D1E0A
:1010C000F9D5B3460122084302D000227F1C04E078
:1010D0002078302801D100227F1E002A099784D071
:1010E0001DE0112D07DAFFF70BFF303262556D1C42
:1010F00050EA0102F5D1084302D00098C8B10EE0D1
:101100000021681E05E0235C625C63542254401E8B
:10111000491C8142F7DBAB46A81B401E099000200A
:1011200004F80B000B98099AC0F80880C0E9002B5E
:101130007AE711264FF0000857E72DE9F04F88466F
:101140000446D21D22F0070191B0D1E90001CDE99A
:101150000A0115F01FFD02460B98C00F01D02D208B
:1011600007E02068810701D52B2002E0202101EA59
:10117000C000032A099001D0072A05DB0346414637
:10118000204600F0A3FB0BE12078800601D5E06942
:1011900000E00620B8F1650F814606D0B8F1660F71
:1011A00018D0B8F1670F70D131E00020B9F1110FFC
:1011B000009001DB112301E009F101030AAA01A952
:1011C0000CA8FFF7E2FEDDE90C70002609F101052D
:1011D000834647E001204B4600904FF000470AAAA3
:1011E00001A90CA8FFF7D1FEDDE90DB00C995D4611
:1011F000002610B909F101000D18B9EB050003D460
:10120000C0F1FF3609F10105A5EB09002BE0B9F1AA
:10121000010F01DA4FF001090020B9F1110F009020
:10122000484601DD112300E003460AAA01A90CA8E3
:10123000FFF7ABFEDDE90C704D46002683462078B3
:1012400000070AD4AB4500DA5D4601A8012D04DD94
:10125000411911F8011C302907D04F4502DA17F166
:10126000040F04DA012082460FE06D1EEEE7002F26
:1012700002DCED1B3E4403E0781CA84200DD7D1C2F
:10128000B81B00F1010A4FF000472078000703D493
:10129000AA4501DB4FF0FF3A0021B7F1004F0DF1F5
:1012A00043088DF8431024D002202B23002F01DAAD
:1012B0007F422D230A21021EA0F1010000DC5FB154
:1012C00097FBF1FC97FBF1F201FB1C7C17460CF13C
:1012D000300C08F801CDEEE7A8F101000370218879
:1012E000090501D5452100E06521A0F1010800F8BC
:1012F000011C09980FA9A1EB0807FF1D00B10120EF
:10130000411901EBEA70A1693844081A401EA06136
:101310002078C00602D42046FFF7FCF8099828B1CF
:10132000D4E901219047206A401C20622078C00641
:1013300022D52046FFF7EEF81EE0002E04DBB34571
:1013400002DD01A8805D00E03020D4E90121904752
:10135000206A401C2062761CAAF101005FEA000AA4
:101360000AD100F0AFFAC0680168405CD4E90121FD
:101370009047206A401C2062281EA5F10105DCDC94
:1013800007E0D4E9012118F8010B9047206A401CBE
:101390002062381EA7F10107F3DC2046FFF7D0F8E2
:1013A000032011B041E600002DE9F04F04460D4640
:1013B000D21D22F0070089B0D0E90097484639468F
:1013C00015F0E8FB0246F80F01D02D2307E0206856
:1013D000810701D52B2302E0202101EAC0038DF80B
:1013E00020300BB1012000E00020032A824601D00A
:1013F000072A04DB2946204600F068FA3FE12078FE
:10140000800601D40D2500E0E569C7F30A560D2DCD
:1014100049DA00214FEA175B08464FF00000002F21
:1014200000F4400007DA00EB80004FF4400100EBCD
:10143000D07001EA60008115012901DD4FF0FF3114
:1014400000224FEA850CBCF1180F06D31346ACF10D
:1014500018004FF08052C24003E04FF4801323FA8B
:101460000CF30CF10C0CBCF1200F04D3ACF1200CEC
:1014700009FA0CF001E007FA0CF000294FF00048DF
:1014800001DD18B90FE00ED140450CD319EB02096C
:101490005F4121B9404502D19F4329EA0209BBEBD4
:1014A000175F00D0761C2088000502D57B48784461
:1014B00002E07A487844193808AA302302F80A3042
:1014C000037C0AF10101002E0AF1020A53546A4614
:1014D00002DC4FF0300101E04FF031014FF0010824
:1014E0008DF8001002D0A6F2FF3603E059EA47015A
:1014F00000D06B4E002D02DC2178090704D54FF097
:1015000002082E218DF80110C44600210BE0C7F31C
:1015100003433F01C35C491C6D1E02F808300529D6
:1015200008F1010801DA002DF1DC00210CE000EBEC
:101530001973491C1B786D1E082902F808304FEA00
:10154000091908F1010801DA002DF0DC21688B0689
:1015500002D516E0A8F10108E04505DD02EB08031D
:1015600013F8013C302BF5D0B8F1000F09DD02EB88
:10157000080313F8013C2E2B03D1090701D4A8F16D
:101580000108002D05DD3E2102F808106D1E08F14E
:101590000108407C002E02F8080008F1010804DA76
:1015A0002D20764202F8080002E02B2002F8080005
:1015B0000A214FF47A70864208F101080BDB96FB92
:1015C000F0F3303302F8083096FBF0F308F101082D
:1015D00000FB136601E0642E0CDB642096FBF0F345
:1015E000303302F8083096FBF0F308F1010800FBF5
:1015F000136601E00A2E06DB96FBF1F0303002F8AC
:10160000080008F1010896FBF1F001FB1060303092
:1016100002F80800A16908F1010808EB050202EBD5
:101620000A00081AA0612078C00602D42046FEF7FE
:1016300071FF216A08AE01EB0A00206204E0D4E9E0
:10164000012116F8010B9047BAF1010AF7D2207870
:10165000C00602D52046FEF75DFF6E4609E016F88B
:10166000010B3E280FD0D4E901219047206A401C8D
:101670002062B8F10108F2D22046FEF761FF09B0FE
:101680000320BDE8F08F206A2844206203E0D4E9FB
:101690000121302090476D1EEBD3F8E7CD72010099
:1016A00002FCFFFF10B5436913B1AFF3008001E006
:1016B000FFF7E6FA012010BD126800F12401426232
:1016C000002282620122EDE711684FF0FF32E9E764
:1016D000007B00F08000704710B542485421FFF7AE
:1016E00081F941485421FFF77DF940485421FFF723
:1016F00079F93F493B483C4A3F4B08603D490A6005
:101700003A491960531C0365481C1065012008659F
:101710003B48344A39A1784400F09EFA20B9384851
:1017200078440A3800F044FB37482F4A35A1784402
:1017300000F092FA20B9344878440A3800F038FBB7
:1017400032482A4A2FA1784400F086FA20B92F485F
:1017500078440A3800F02CFB40232248DC000021AA
:10176000224600F056FA20B125487844543800F05B
:101770001FFB1D4822464023002100F04AFA20B1F9
:1017800021487844543800F013FB184822461023AF
:10179000002100F03EFA002806D01C487844BDE83D
:1017A0001040563800F004BB10BD104870B5006DF5
:1017B00020F001040B4800F0C7FA0B4800F0C4FA0F
:1017C0000A4800F0C1FA09E0206D20F0010520462A
:1017D00000F0BAFA2046FEF7D4FD2C46002CF3D1D7
:1017E00070BD0000C001002014020020680200202B
:1017F000080000200C0000201000002072000000F3
:1018000078700100770000006470010050700100E2
:101810002DE9F04116460C46054600F04BF80368EA
:1018200093F80101012807D0FF2C12D8185D80B170
:1018300001202C70BDE8F081D3F807013246214623
:1018400003F20713C7182846BC46BDE8F041012340
:1018500060474FF0FF30EDE710B500F0B1FABDE89A
:10186000104000F0A0BA70477546FFF727FBAE4660
:1018700005006946534620F00700854618B020B59C
:10188000FEF73EFDBDE820404FF000064FF0000798
:101890004FF000084FF0000BAC46ACE8C009ACE8D4
:1018A000C009ACE8C009ACE8C00921F007018D46C9
:1018B0007047000010B500F005F8001D10BD00BF16
:1018C000D16A010000487047DC0200202DE9F04198
:1018D0001F46044603260168072A01F4006004DB62
:1018E00008B116A505E016A503E008B115A500E0AE
:1018F00015A521F010002060A069C01EA0610FB1E5
:10190000401EA0612046FEF705FE4FB1D4E901213B
:1019100038469047206A401C2062C01C206206E0C6
:10192000206AFAE7D4E9012115F8010B9047761EE9
:10193000F8D22046FEF704FEBDE8F0814E414E008D
:101940006E616E00494E4600696E66002DE9F047F3
:10195000814616468AB0354878440DC88DE80D009A
:1019600032487844801C03AC0DC884E80D0041F671
:101970009B300844372190FBF1F290FBF1F5A5F183
:10198000800501FB12041B3C02D56442012000E0EB
:101990000020DFF898A080460027FA44AAF1BE0A8A
:1019A0000EE0E0070AD03246684607EB4701012304
:1019B0000AEB810114F0B7FF8DE8070064107F1C6B
:1019C000002CEED1194F7F44AE3F19E0E80715D047
:1019D00007EB04100DF1180A90E80E008AE80E00DB
:1019E000C068F04201D1981908903246012306A937
:1019F00003A814F098FF03AB83E807006D10641C84
:101A0000002DE3D14FF0010332466946B8F1000FD3
:101A100003A802D014F072FF01E014F084FFC9E9BA
:101A20000001C9F808200AB0BDE8F087C06E0100C7
:101A30002DE9F05F054617460C46C86820F42010D3
:101A400040F48000C860800602D5084600F0F9FA2C
:101A5000E06841F282014FF0FF3A0140022903D0D1
:101A6000204600F08BFAB9E000F42041B1F5004FB8
:101A70000FD1C00306D56168E06A884200D80846E5
:101A8000606006E02069E0626060606900F0EDF986
:101A9000A061A0680022EEB200280DDAE1688B0593
:101AA0000AD4C043A06041F490302260E0606068D6
:101AB000411C61600670AAE0E0689146226040F433
:101AC0000050E060206978BB606900F0C0F904F163
:101AD00024054FF00108A8B1A08910F4407F08D078
:101AE000E069FEF71FFC206118B1E06840F4006077
:101AF00017E0C4F81C802561E06820F4407040F4D1
:101B000080600EE0E069FEF70DFC00282061F0D057
:101B1000E06840F4006010F4407FE06002D140F4DF
:101B20008070E06020696060E06825696FF0010BFB
:101B3000C1051ED56168E06A884200D80846411B8D
:101B400004D02246284600F023FAE8BB1FB1E56224
:101B5000C4E9015959E0681CE0626060E069401E18
:101B6000A060E06840F48030E06030462E70BDE850
:101B7000F09F17B100F480320AE06068411C616098
:101B80000670E0680A2E40F48030E06006D0002243
:101B9000E16A6068814203D90B4602E00122F7E75F
:101BA0000346B4F80CC05B1B5FEA4C5C04D4D4F869
:101BB0001CC09C4500DD02B3814200D80146002BC9
:101BC000A1EB0008E56200E008E0C4E9015907DD87
:101BD00022461946284600F0DBF908B15046C6E710
:101BE000B8F1000F09D0A169E5626560A1EB0800BA
:101BF000A061E06840F01000E06047B16168A06952
:101C0000E562491B08446560A0615846AFE730466D
:101C1000ADE770B5C468A50713D0650211D4B2F55D
:101C2000807F09D0B2F5007F06D0B2F5806F08D171
:101C3000012300F1240106E05D1E6FF07F46B542EE
:101C400001D3012070BD0161C361416024F4706162
:101C50001143C160002070BD2DE9F0410C461646CD
:101C6000070047D0104600F06FF82078611C61280B
:101C70000AD0722802D077283CD102E00125002446
:101C800005E00225042402E0082448F2020511F8C8
:101C9000010B2B2806D0622809D011F8010C7428FA
:101CA0000AD00BE045F0030544F00204EFE745F0ED
:101CB000040544F00104EAE744F0100438462146E4
:101CC00000F0A6F8411C15D00021316171604FF47D
:101CD0000071F560F1617061200704D53046022281
:101CE000002100F0CFF8306D40F001003065304643
:101CF000BDE8F0810020FBE72DE9F0410D460646E6
:101D0000104C206DC10704D0410804D020F001041C
:101D1000F7E722460EE05420FEF704FB07000ED042
:101D2000206D47F001010843542120653846FEF735
:101D300059FE3A4629463046BDE8F0418CE700207E
:101D4000D6E70000C00100202DE9F04704464FF01F
:101D5000FF380026C568D4E90497A80718D02046A4
:101D600000F04CF9384600F05DF8002800DA4646ED
:101D7000280502D54846FEF704FB4C212046FEF715
:101D800031FE206D20F0010020653046BDE8F0876F
:101D90004046FBE710B50446AFF300802046BDE89F
:101DA0001040FEF798BA002801D000F065B87047DF
:101DB00010B500F081F9BDE81040FFF7F4BF000056
:101DC00010B5012805D0002103A000F05BF9012027
:101DD00010BD09A1F8E7000053494752544D454D45
:101DE0003A204F7574206F662068656170206D65BC
:101DF0006D6F7279000000003A2048656170206DB7
:101E0000656D6F727920636F7272757074656400AE
:101E10000EB5CDE9000100F0D1F90290694601202C
:101E2000ABBE0EBD08B5694600900220ABBE08BD32
:101E30001FB58DE8070069460520ABBE04B010BD94
:101E40001FB58DE80F0069460620ABBEF6E708B562
:101E5000694600900920ABBE08BD1CB5CDE9000164
:101E600069460A20ABBE1CBD704708B569460090A4
:101E70000C20ABBE08BD000001491820ABBEFEE738
:101E8000260002002DE9F041044616460D4647693A
:101E9000007B80072ED03846FFF7D9FF50BB3EB3FA
:101EA000012E02D0022E25D104E0204600F065F973
:101EB00005441DE03846FFF7D8FFE168002841F0EF
:101EC0001001E16005DA204600F058F80120BDE875
:101ED000F081C9030BD56268E16A914200D81146CE
:101EE000A26911442269891A814200DD084605442D
:101EF000002D01DA0220EAE7E16A6068E2688142C7
:101F000006D29103E06203D522F4003141F01002C1
:101F1000A6690027AE4213DCE16A814201D90B4673
:101F200000E0034603EB060C2369ACEB030CAC4565
:101F300006DD814201D98C4600E084469C4505D1EE
:101F4000A760276042F02000A5620DE0AD1BE669A6
:101F5000AE1B8142A66000D90846C01A281A20602C
:101F60005819606022F0200003490840E06000201A
:101F700084F84870ABE70000BFCFD7FFC16821F4F9
:101F8000001141F08001C160002181600160704753
:101F90002DE9F74F15460C464FF0FF3B3848D76800
:101FA000D2F814A0074209D05046A969FFF755FF9F
:101FB000002819DB3248C0430740EF604FF000496A
:101FC0006FF000484C4501D3464600E02646009994
:101FD0003B4650463246FFF72BFFA96920F00042EE
:101FE000B21A1144A96128B12846FFF7C7FF584625
:101FF000BDE8FE8FA41BE5D10020F9E770B50446CB
:102000000569C06A6168884200D80846E16821F421
:102010002011E160C90312D5A84208D02246411B15
:102020002846FFF7B5FF10B14FF0FF3070BD00201C
:10203000E562C4E90150E06820F48030E0600020EF
:1020400070BD10B50446C06820F02000E060A16AB1
:10205000A06988420DD02046FFF7D0FFE06820F449
:10206000405040F01000E060A06AA0612069E0628A
:10207000606044F24001E0688843E06010BD000009
:102080001000020070B505460C460A2000E06D1CE9
:1020900000F06CF835B128780028F8D102E0641C13
:1020A00000F064F814B120780028F8D1BDE8704041
:1020B0000A2000F05BB8000010B5014602A0FFF74F
:1020C000E1FF012010BD00005349475254524544DE
:1020D0003A2052656469726563743A2063616E27C1
:1020E00074206F70656E3A20000000000000000050
:1020F00030B44FF0013C50F8042B51F8043BCCFABB
:1021000052F4D51A20D1FCB950F8042B51F8043BF5
:10211000CCFA52F4D51A17D1B4B950F8042B51F8AF
:10212000043BCCFA52F4D51A0ED16CB950F8042BFA
:1021300051F8043BCCFA52F4D51A05D1002CDAD070
:1021400030BC4FF00000704729BAB1FA81F111F0AC
:102150001801D1F120008440F2D1CA40CB4012F0E6
:10216000FF0213F0FF0330BCD01A704708B5694670
:102170008DF800000320ABBE08BD10B50146C26853
:10218000900703D0900607D5886A0AE0FEF79AFE0A
:1021900001210160881E10BD8B69486818440B69D5
:1021A000C01A91F848301BB191F84910401A10BD7F
:1021B0001103FCD50028FADD401E10BD10B5431CEC
:1021C00002E010F8011B71B18107FAD14FF0013222
:1021D00002C88C1A8C4314EAC211F9D0C01A0A063C
:1021E00003D0C01E10BDC01A10BD0A0401D0801E4D
:1021F00010BD0902FCD0401E10BD0000FEE700002B
:1022000070470000082000F051B80000EFF3108084
:1022100072B600BFFEE70000816A02292CD180B5AA
:102220000168D0E911CEC26C0B6823F00E030B607D
:102230000B6823F001030B60116821F480711160B9
:102240000EF01C02012101FA02F2CCF80420D0E9C0
:1022500014325A60826D32B1136823F480731360B4
:10226000D0E9172353608162C16B002200294262CA
:1022700018BF8847002080BD0421016401207047F9
:10228000B0B5044600F0F0F8054640F21400C2F282
:1022900000004068611C18BF044400BF00F0E4F86F
:1022A000401BA042FAD3B0BD7047000040F60C01BD
:1022B000C5F600010A68024214BF08607047FFF7C4
:1022C000F3BF00002DE9F04F82B00E68002E00F041
:1022D000BB8000F1200241F20005009200F138437A
:1022E000C4F6000507224FEAB324A84208BF04221F
:1022F0004FF0000C00250027042C38BF4FEAB32212
:10230000019209E00E68013736FA07F205F102057D
:102310000CF1040C00F09880012202FA07FB16EA87
:102320000B0EEFD0D1F80490032209F0030AAAF1B2
:102330000104AA40012C6FEA02080FD88268CC6819
:1023400002EA0802AC40224382604268C9F30014EA
:1023500022EA0B02BC402243426005E0BAF1030FBF
:1023600002D14FF0030A22E0C2688C6802EA080238
:10237000AC402243BAF1020FC26018D16FF00302E1
:10238000009B02EA570253F802900CF01C040F263F
:10239000D1F810B006FA04FA29EA0A090BFA04F493
:1023A00044EA09049C50D1F8049009F0030A026839
:1023B0000AFA05F402EA0802224319F4403F0260D7
:1023C000A0D040F2080927F00302C4F201090CF082
:1023D0000C040F2352F8098003FA04F6019B28EA43
:1023E000060603FA04F4344340F6000842F80940B4
:1023F000C5F60008D8F800204C6842EA0E06E30251
:1024000058BF22EA0E06C8F80060D8F80420A602D9
:1024100042EA0E0358BF22EA0E03C8F80430D8F887
:102420008020E60342EA0E0358BF22EA0E03C8F8F2
:102430008030D8F88420A40342EA0E0358BF22EA71
:102440000E03C8F884305DE702B0BDE8F08F0000ED
:102450000069084018BF0120704700001823002AB7
:1024600008BF2823C150704740F24840C2F2000024
:102470000068704740F21400C2F200000068704724
:1024800040F2140040F24841C2F20000C2F20001E2
:1024900040680A68104408607047000080B544F244
:1024A0000000C5F60000016841F48071016003205E
:1024B00000F070F80F2000F009F800281CBF012080
:1024C00080BD00F029F8002080BD0000B0B540F2CA
:1024D0001405C2F200056968E1B1044600F072FB20
:1024E00069684FF47A72B2FBF1F1B0FBF1F001F0E0
:1024F00039FA01460F2C4FF001000AD8002918BF05
:10250000B0BD4FF0FF302146002200F017F8002048
:102510002C60B0BD0120B0BD70470000002848BF4E
:10252000704700F01F01012202FA01F14EF2001281
:102530004009CEF2000242F82010704710B54EF666
:102540000C5CCEF2000CDCF80030C3F3022E8EF0EF
:102550000704042C28BF0424BEF103034FF0FF3E00
:102560000EFA04F438BF0023A14399400EFA03F396
:102570009A43114300F00F0200F160430901043A4D
:1025800003F564436244002848BF02F10C0319704C
:1025900010BD00004EF60C51CEF200010A684FF655
:1025A000FF031A4060F30A2242F0806040F0FD70A1
:1025B0000860704740F20040C5F60000006800F473
:1025C000C060704740F20040C5F60000016841F469
:1025D00080710160704700002DE9F04381B004462E
:1025E000007888274006C5F6000761D5206B6FF09C
:1025F000010101EBB051022955D34FEAB05149B165
:1026000001291DD157F87C1C41F4803147F87C1C0E
:1026100049E000BF4FF0B046306820F08060306085
:10262000FFF722FF054600BF306800010CD5FFF719
:102630001BFF401B0228F7D94FF003093AE000BF07
:102640004FF0010936E000BF57F8780CD4E90112C9
:1026500020F4FE4040EA012047F8780C57F8780C47
:102660004FF0B04820F47810104347F8780CD8F8B1
:10267000000040F08060C8F80000FFF7F5FE064655
:102680004FF00309D8F80000000105D4FFF7ECFE75
:10269000801B0228F6D90DE057F8781C6269206B80
:1026A000114347F8781C396821F440010843386029
:1026B0004FF000096078000728D5B868216C00F455
:1026C00040758D4222D0FFF77DFF7DB3B868B968B1
:1026D00020F4407041F48031B960B96821F4803150
:1026E000B960216C0843B860B868C0070ED0FFF726
:1026F000BBFE064641F28935B868800706D4FFF76D
:10270000B3FE801BA842F7D34FF003092068C1072E
:1027100015D181071BD4C10621D481062BD44107D2
:1027200035D4010741D4C0054DD49FE0206CB96871
:1027300021F440710843B8602068C107E9D0A1695D
:102740003A6822F00302114339608107E3D5E16959
:102750003A6822F4406211433960C106DDD5A16AAE
:102760003A684FF6FF7363EA01031A4042EA0141F7
:1027700039608106D3D5E16A3A684FF6FF7363EAA0
:1027800001031A4042EA014139604107C9D5216A73
:102790003A686FF47F2363EA11131A4001F47F4112
:1027A00042EA011139600107BDD5616A3A686FF4E8
:1027B0007F2363EA11131A4001F47F4142EA0111B9
:1027C0003960C00552D5616B3868B1F1006F20F0F7
:1027D000406040EA0102384640F87C2916D0B1F149
:1027E000806F43D14FF0B045286820F080602860AA
:1027F000FFF73AFE064600BF286800010AD5FFF73A
:1028000033FE801B0228F7D926E000BF4FF080710D
:1028100029E000BF57F8780C616820F4FE4040EAD8
:102820000120E26847F8780C57F8780C4FF0B04573
:1028300020F06060104347F8780C286840F0806012
:102840002860FFF711FE06462868000108D4FFF74C
:102850000BFE801B0228F7D94FF0030906E000BFEA
:102860006169A7F178000268114301602068810561
:1028700024D5A16B6FF04042B1F1004F0ED069B189
:10288000B1F1804F0B460AD03A6821F0805322F014
:1028900040423A606FF0406201E000BF0B463E6884
:1028A000B1F1C05F02EA060242EA03023A6005D1D2
:1028B00057F87C1C41F0807147F87C1C400549D5D5
:1028C000E16B3868B1F1005F20F0405040EA01024E
:1028D000384640F87C2915D0B1F1805F3AD14FF0ED
:1028E000B045286820F080602860FFF7BDFD0646EF
:1028F000286800010AD5FFF7B7FD801B0228F7D929
:1029000026E000BF4FF4803131E000BF57F8780C6B
:10291000616820F4FE4040EA0120226947F8780C03
:1029200057F8780C4FF0B04520F06040104347F85E
:10293000780C286840F080602860FFF795FD064617
:102940002868000110D4FFF78FFD801B0228F7D9FB
:102950004FF003092068C1040FD4800415D4484601
:1029600001B0BDE8F08300BF6169A7F1780002689B
:10297000114301602068C104EFD5616CFA6822F44C
:1029800040421143F9608004E9D5D4E9120157F8B7
:10299000642C22F03002114347F8641C57F8641C81
:1029A00021F00301084347F8640C484601B0BDE834
:1029B000F08300002DE9F04381B0002800F0DC80B6
:1029C00044F20008C5F600080546D8F800000C4699
:1029D00000F00700814215D9D8F8000020F0070068
:1029E0002043C8F80000FFF73FFD0646D8F8000076
:1029F00000F00700A04205D0FFF736FD801B02283B
:102A0000F4D977E0286808278107C5F6000714D5B0
:102A1000A868396821F0F00108433860FFF724FD09
:102A2000064600BF3868C00306D4FFF71DFD801BB3
:102A30000228F7D95EE000BF2868810615D56869CD
:102A4000D7F8001121F0F0010843C7F80001FFF7A3
:102A50000BFD0646D7F80001800305D4FFF704FDFF
:102A6000801B0228F6D945E02868410617D5A869D9
:102A7000D7F8001121F00F0141EA1010C7F800014A
:102A8000FFF7F2FC064600BFD7F80001C00305D4EB
:102A9000FFF7EAFC801B0228F6D92BE028684107E3
:102AA00013D5E868396821F4E06108433860FFF71E
:102AB000DBFC06463868800306D4FFF7D5FC801B94
:102AC0000228F7D916E000BF2868010717D5286942
:102AD000396821F4605141EAC0003860FFF7C4FC56
:102AE000064600BF3868400308D4FFF7BDFC801BD2
:102AF0000228F7D9032001B0BDE8F0832868C00799
:102B00001ED1D8F8000000F00700844224D2D8F883
:102B1000000020F007002043C8F80000FFF7A4FCE5
:102B2000054600BFD8F8000000F00700A04213D00F
:102B3000FFF79AFC401B02284FF00300F2D939E05E
:102B400068684FF0B0410968D0B1032812D002285C
:102B500034D1890310D515E000F034F840F21C019F
:102B6000C2F200010860FFF785FC01B0BDE8F04348
:102B7000FFF7ACBC890105D4012001B0BDE8F083AA
:102B80008907F9D5396821F0030108433860FFF758
:102B90006BFC064641F288393868696800F00C0021
:102BA000B0EB810FADD0FFF75FFC801B48454FF0C5
:102BB0000300F1D901B0BDE8F08300BF4905DBD5C2
:102BC000E0E700000C20C5F6000050F8042CC2F32A
:102BD000810242F20041C0F2F401DFE802F0035347
:102BE000132100BF4FF0B041096848F6C00201F060
:102BF000F001B02928BFB0218908C0F60102515860
:102C000040E000BF4FF0B0410968C90240F6001132
:102C1000C0F23D015CBF41F20021C0F27A0131E017
:102C2000026802F00302022A1CD04FF0B041032ACE
:102C30000CD10968C90240F60011C0F23D015CBF29
:102C400041F20021C0F27A010CE000BF096848F6A9
:102C5000C00201F0F001B02928BFB0218908C0F6F8
:102C60000102515802680368C2F306225143C3F3BC
:102C700002120132B1FBF2F10268012303EB52723E
:102C8000B1FBF2F150F8040C3C2202EA900048F645
:102C90006002C0F601021058B1FBF0F0704700006E
:102CA00080B5FFF78FFF0821C5F60001096848F6D7
:102CB000A002C1F30221C0F6010252F8211001F076
:102CC0001F01C84080BD000080B5FFF77BFF0821D1
:102CD000C5F60001096848F6A002C1F3C221C0F69A
:102CE000010252F8211001F01F01C84080BD000010
:102CF0000C21C5F6000151F8042CC2F3810242F206
:102D00000040C0F2F400DFE802F00353132100BFDB
:102D10004FF0B040006848F6C00100F0F000B02865
:102D200028BFB0208008C0F601010858704700BFD6
:102D30004FF0B0400068C00240F60010C0F23D0005
:102D40005CBF41F20020C0F27A0070470A6802F0CE
:102D50000302022A1CD04FF0B040032A0CD10068B5
:102D6000C00240F60010C0F23D005CBF41F20020FE
:102D7000C0F27A000CE000BF006848F6C00200F024
:102D8000F000B02828BFB0208008C0F6010210581B
:102D90000A680B68C2F306225043C3F302120132E1
:102DA0000968B0FBF2F0012202EB5171B0FBF1F0C7
:102DB00070470000002804BF01207047F0B581B0C3
:102DC0000446007894268006C5F6000656D420787E
:102DD000C00713D056F88C0C00F00C0156F8880C84
:102DE000082907D00C2940F0CF8000F00300032809
:102DF00040F0CA806068002800F056822078800782
:102E00001CD556F88C0C00F00C0156F8880C0429DF
:102E100007D00C2940F0DA8000F00300022840F0CF
:102E2000D580E068002800F03F82206956F8901CA9
:102E300021F0FE4141EA006046F8900C216811F053
:102E4000180F00F06B8162693068002A00F08A80F8
:102E5000C90600F1A58040F001003060FFF704FBD7
:102E6000054600BF3068800700F11681FFF7FCFAC5
:102E7000401B02284FF00300F4D9B9E256F88C0C3D
:102E800010F00C0156F8880C05D00C292AD100F05E
:102E90000300012826D1E069002800F005824FF0E8
:102EA000B041606A0A6802F0F002B02A28BFB0227E
:102EB000904231D900F096FE002840F0F5814FF0A5
:102EC000B042D4E90801136823F0F00319431160FC
:102ED00056F8901C21F47F4141EA002046F8900CFE
:102EE0002DE000BFE1694FF0B0473868002900F0DD
:102EF000878040F001003860FFF7B6FA054600BF52
:102F00003868800700F1A280FFF7AEFA401B022864
:102F10004FF00300F4D96BE20A6822F0F00202439A
:102F20000A60216A56F8902C22F47F4242EA01217D
:102F300046F8901C00F056FE002840F0B581FFF7DF
:102F400041FE40F21401C2F2000140F21C02096885
:102F5000C2F2000210600846FFF7B8FA002840F0FD
:102F6000A38134E720F004003060FFF77DFA0546C6
:102F70003068000740F17C80FFF776FA401B032899
:102F80004FF00300F4D933E261684FF0B0400268BB
:102F9000B1F5803F40F0908042F48031016091E0D3
:102FA00080073FD4306840F001003060FFF75CFAE2
:102FB000054600BF3068800734D4FFF755FA401B40
:102FC00002284FF00300F5D912E200BFE1684FF08C
:102FD000B0473868002900F09B8140F48070386069
:102FE000FFF742FA054600BF386840053FF51DAFC0
:102FF000FFF73AFA401B02284FF00300F4D9F7E13B
:1030000020F001003860FFF72FFA05463868800786
:103010007FF5DDAEFFF728FA401B02284FF00300D2
:10302000F4D9E5E1306840F004003060FFF71CFAA5
:10303000054600BF3068000756D4FFF715FA401B5D
:1030400003284FF00300F5D9D2E100BF4FF0B042A2
:10305000D4E90801136823F0F0031943116056F80E
:10306000901C21F47F4141EA002046F8900CAEE626
:10307000306820F001003060FFF7F6F9054600BF28
:10308000306880074AD5FFF7EFF9401B02284FF060
:103090000300F5D9ACE100BF306820F004003060D7
:1030A000306800073AD5FFF7DFF9401B03284FF0DF
:1030B0000300F5D99CE100BF22F4803200290260B0
:1030C00000F03881FFF7D0F905464FF0B04700BF58
:1030D000386880033FF592AEFFF7C6F9401B6428BD
:1030E0004FF00300F4D983E1A069316821F47061E5
:1030F00041EA00203060306820F001003060FFF7C6
:10310000B3F905463068800708D5FFF7ADF9401BD5
:1031100002284FF00300F5D96AE100BF207840078C
:1031200052D42078400677D4E06A002800F062810B
:1031300056F88C2C56F8881C022802F00C0040F03F
:103140008180226B01F00303934240F09380626B15
:1031500001F07003934240F08D80A26BC1F306230F
:10316000934240F08780E26B01F47813934240F081
:103170008180226C01F06063934240F07B80626C3E
:1031800001F06041914275D14FF0B045286880014F
:1031900000F13081286840F08070286056F8880C73
:1031A00040F0805046F8880CFFF75EF90446286826
:1031B000800100F11F81FFF757F9001B02284FF033
:1031C0000300F4D914E100BFD6F86C03C00511D494
:1031D000FFF7F8F9FFF748F9054600BFD6F86C038A
:1031E000C00507D4FFF740F9401B02284FF0030049
:1031F000F4D9FDE0A16856F8040C012907D005298F
:1032000068D140F0040046F8040C56F8040C40F075
:10321000010046F8040C68E0A16A7068002947D0F4
:1032200040F001007060FFF71FF9054670688007E5
:103230003FF57AAFFFF718F9401B02284FF0030063
:10324000F4D9D5E00C282FD04FF0B045286820F0F5
:1032500080702860FFF708F9044600BF28688001E5
:1032600040F18C80FFF700F9001B02284FF00300AB
:10327000F4D9BDE00C2817D04FF0B04738684001B2
:1032800012D4386820F080703860FFF7EDF80546FA
:103290003868800140F17E80FFF7E6F8401B022885
:1032A0004FF00300F4D9A3E0012001B0F0BD00BF4E
:1032B00020F001007060FFF7D7F8054670688007BE
:1032C0007FF532AFFFF7D0F8401B02284FF0030024
:1032D000F4D98DE020F0010046F8040C56F8040CF7
:1032E00020F0040046F8040CB1B3FFF7BDF8054622
:1032F00041F2883756F8040C80073FF512AFFFF70C
:10330000B3F8401BB8424FF00300F3D970E000BFA0
:1033100020F480703860FFF7A7F80546386840054C
:103320007FF58CADFFF7A0F8401B02284FF003009B
:10333000F4D95DE0FFF798F805464FF0B04700BFBD
:10334000386880037FF55AADFFF78EF8401B64287C
:103350004FF00300F4D94BE0FFF786F8054641F241
:10336000883756F8040C80077FF5DBAEFFF77CF852
:10337000401BB8424FF00300F3D939E056F8880CEF
:103380004FF6FC71CEF6FE61084046F8880C00202E
:1033900001B0F0BD56F8880C48F28C01C1F2C111A1
:1033A00004F1300708408ECFD4E91054084310438D
:1033B00040EA032038432843204346F8880C4FF066
:1033C000B045286840F08070286056F8880C40F0BE
:1033D000805046F8880CFFF747F8044628688001BB
:1033E00008D4FFF741F8001B02284FF00300F5D97D
:1033F00001B0F0BD002001B0F0BD0000704700003A
:10340000B0B582B001684A688B6803F04105012DB0
:1034100008D112F0400505D0C16C02B0BDE8B04043
:10342000084700BF9D0707D512F0800504D0016D45
:1034300002B0BDE8B040084713F4B07F18BF12F0E7
:10344000200501D102B0B0BD5D0616D5056E032D75
:1034500008D100200190C868019088680190019807
:1034600002B0B0BD456E45F00405456600250195E6
:10347000CD6801958D680195019D9D0604D4DB05FD
:1034800011D4436EDBB9DDE7456E45F001054566B5
:10349000002501958D6801950D6825F040050D60AA
:1034A000019DDB05EDD5436E43F008034366002321
:1034B00001938B680193019B436E002BC2D04B6834
:1034C000920723F0E0034B604FF00103036625D021
:1034D0004A6843F6E94422F003024A60816DC0F66F
:1034E000000459B105460846CC63FEF795FE014637
:1034F000284619B1416E41F040014166416D0029F5
:10350000A0D0CC6304460846FEF786FE002899D07A
:10351000606E40F04000606602B0B0BD02B0BDE831
:10352000B040FFF76BBF0000002804BF01207047C8
:10353000416A19B100210161142104E04168B1F52B
:10354000827F02D01C2100224250B0B50025856246
:10355000016E21B9C565044600F050F820460221ED
:1035600001660168D0F80CE00B68BEF5E06F23F04F
:1035700040030B6098BF01254EF40063B3F5706FF4
:103580004FEA053C1CBF00258562D0E90154D0E913
:10359000043205F4827504F404442C4403F002035D
:1035A0002344846902F00102C5691A4404F40073DB
:1035B0001A4405F03803056A1A4405F08003856A49
:1035C0001A4405F400531A430A600422436A0EF4B5
:1035D000706502EA1442446B45EA0C0503F01003DF
:1035E0002A4304F008041A4322434A6000210122BE
:1035F00041660266BDE8B0400846704780B586B0B7
:10360000006843F20002C4F2010200219042CDE9B9
:103610000311CDE90111009102D006B080BD00BFB9
:103620004C20C5F60000426942F480524261426972
:1036300002F480520592059A026842F0010202608B
:10364000006800F0010005900598F020009002202D
:10365000CDE90101032003900520049069464FF055
:103660009040FEF72FFE222000210022FEF766FF89
:103670002220FEF753FF06B080BD00002DE9F04385
:1036800081B01E4615460F460446FEF7EDFE216E3C
:103690008146012908D1002F4FF0010018BF002DED
:1036A0000ED101B0BDE8F0836068B0F5827F0CD127
:1036B00004294FF00200F4D1A1680029EBD0F0E713
:1036C000002EEED0E06D012804D1022001B0BDE84B
:1036D000F08300BF0120E065206E04281CBF052098
:1036E0002066002060662564A4F84660A4F8446063
:1036F000A763E687C4E913002068A687E1684268EB
:10370000B1F5E06F22F48052134698BF03F5805361
:10371000012E88BF134643600268520603D4026834
:1037200042F0400202606268731EB2FA82F2B3FA9B
:1037300083F3DDF8208052095B09B1F5E06F43EABD
:1037400002016DD931B137F8021BC160A763E08F68
:103750000138E087012518F1010036D102E000BFF1
:10376000FEF782FEE08F20B9B4F84600002800F092
:10377000CB802068816889070CD5E18F51B1012D7C
:1037800008D1A16B002531F8022BC260A163E18F43
:103790000139E1878168C907E2D0B4F846100029F1
:1037A000DED0C068216C012521F8020B2164B4F839
:1037B00046000138A4F84600D2E700BFFEF754FEE9
:1037C000A0EB0900404580F09780E08F20B9B4F865
:1037D0004600002800F098802068816889070CD591
:1037E000E18F51B1012D08D1A16B002531F8022BD9
:1037F000C260A163E18F0139E1878168C907DDD02B
:10380000B4F846100029D9D0C068216C012521F8F0
:10381000020B2164B4F846000138A4F84600CDE755
:1038200089B1E18F02294FF6FE7103D337F8022BDD
:10383000C26004E03A7801310273A06B471CA763B1
:10384000E08F0844E087012608F10105E08F18B9F0
:10385000B4F84600002857D020688168890719D538
:10386000E18FB9B1012E15D1E28FA16B022A07D3E6
:1038700031F8022BC260A163E18F023908E000BF7A
:1038800009780173A16B20680131A163E18F0139CF
:103890000026E1878168C90726D0B4F8461019B31D
:1038A000B4F84610022913D3C168226C22F8021B17
:1038B0002264B4F846100239A4F84610B4F8461051
:1038C000012910D8416841F4805141600BE000BFEC
:1038D000007B216C0870206C01302064B4F8460035
:1038E0000138A4F846000126FEF7BEFD002DADD03C
:1038F000A0EB09004045A9D3012020660020E06527
:10390000032001B0BDE8F08320464FF4C051424689
:103910004B4600F0F1F968B9204641464A4600F0AE
:10392000AFFA38B920464FF4C06142464B4600F02A
:10393000E3F958B1606E40F02000606620206066B8
:103940000020E065012001B0BDE8F0830120206681
:103950000020E065606E002818BF012001B0BDE8BE
:10396000F0830000411E0020B0EB116F1CBF01204E
:1039700070474EF21002CEF2000251604EF6235113
:10398000CEF20001F0230B700721906011607047A8
:10399000D0F88410012904BF022070472421C0F808
:1039A000881001680A680B6822F0005223F00103B6
:1039B0000B60002343660A602021C0F88810C0F81D
:1039C0008430002070470000D0F88420012A04BF12
:1039D00002207047B0B52422C0F888200268D0F8D1
:1039E00064E0D2F800C01368BEF1000F23F00103B9
:1039F0001360936823F0606341EA0301916019D07A
:103A0000936891684CF2905E490FC0F6010E4CF23B
:103A100098551EF80140C0F60105695CC3F3426386
:103A2000E400B4FBF1F11EF80340EB5CE500B5FBEC
:103A3000F3F301E001210123A0F86A102021A0F88E
:103A40006830C2F800C0C0F888100021C0F88410A7
:103A50000020B0BDD0F88420012A04BF02207047A6
:103A6000B0B52422C0F888200268D0F864E0D2F80B
:103A700000C01368BEF1000F23F0010313609368C8
:103A800023F0604341EA0301916019D09368916883
:103A90004CF2905E490FC0F6010E4CF298551EF89C
:103AA0000140C0F60105695CC3F34263E400B4FB66
:103AB000F1F11EF80340EB5CE500B5FBF3F301E028
:103AC00001210123A0F86A102021A0F86830C2F873
:103AD00000C0C0F888100021C0F884100020B0BDDC
:103AE00010B5D0B10446D0F8880028B90020C4F839
:103AF0008400204600F026F82420C4F888002068BE
:103B0000A16A026822F00102026011B1204600F0B1
:103B100059FA204600F080FB10B1012010BD00BF13
:103B20002168486820F490404860886820F02A00A6
:103B30008860086840F0010220460A60BDE8104035
:103B400000F0B4BA10B59AB0044600201890CDE940
:103B50001600CDE91400684604304C21FCF742FF02
:103B6000206843F60001C4F20101884202D01AB075
:103B700010BD00BF012000906846FEF72DFD002813
:103B800018BFFEF743FB4C20C5F60000416941F425
:103B900080414161416901F480411991199901689D
:103BA00041F001010160006814A900F001001990C2
:103BB00019984FF4C0601490022015900020CDE9B0
:103BC0001600072018904FF09040FEF77BFB1AB0CC
:103BD00010BD0000FEE70000FEE70000FEE7000069
:103BE0007047000070B56FF0030148F6C00201EAAB
:103BF0009001C0F601021144B02888BF02F12C01E7
:103C0000086840F20811C5F60001096848F660022C
:103C100001F00F01C0F6010252F82110B0FBF1F4DF
:103C2000FEF7C8FCB0F5007F1AD14EF6C020C0F2F6
:103C30002110844228D349F24030C0F2342084421B
:103C400024D343F6C030C0F24730844220D34DF233
:103C50003F20C0F2DF30844214D8032019E000BFB7
:103C60004CF6BF70C0F26A0084420DD945F6405050
:103C7000C0F2C600844209D346F23F60C0F203108E
:103C8000844205D9002507E0002002E0012000E081
:103C900002200EA151F8205044F20006C5F600069D
:103CA000306820F0070028433060FEF7DDFB044653
:103CB000306800F00700A84206D0FEF7D5FB001BD5
:103CC0000328F5D3032070BD002070BD0000000064
:103CD00001000000020000000300000040F23C3040
:103CE000C2F20000FFF78CBBC06A0021A0F84610AA
:103CF000C187FFF783BB00002DE9F04782B00027A2
:103D00001E4690460D4681468DF80370FEF7ACFBCB
:103D1000301A00EB0806FEF7A7FB40F21C01C2F2C6
:103D20000001096823225143090DD9F8004071436D
:103D30000191A168294239D0824618F1010039D099
:103D4000B5F5C06F22D108E0019801380190D9F88B
:103D50000000806810F4C06F27D0207B8DF803002E
:103D60009DF80300FEF780FBA0EB0A00B04259D299
:103D700001980028E8D10026E9E700BF0198013842
:103D80000190D9F80000806828420ED0FEF76CFB45
:103D9000A0EB0A00B04245D201980028EED10026DF
:103DA000D9F8000080682842F0D10027384602B0D8
:103DB000BDE8F0870027B5F5C06F25D1207B8DF8D1
:103DC00003009DF80300A06810F4C06FEDD0207BC5
:103DD0008DF803009DF80300A06810F4C06FE4D0D4
:103DE000207B8DF803009DF80300A06810F4C06FDD
:103DF000DBD0207B8DF803009DF80300A06810F451
:103E0000C06FDBD1D2E700BFA0682842CDD0A06848
:103E10002842CAD0A0682842C7D0A0682842F3D15F
:103E2000C4E700BFD9E900014268B1F5827F22F002
:103E3000E00242600BD1D9F80810B1F5004F02D072
:103E4000B1F5806F03D1016821F040010160D9F81C
:103E50002810B1F5005F07D1016821F4005101601D
:103E6000016841F4005101600120C9F860000020A0
:103E7000C9F85C000327384602B0BDE8F0870000AF
:103E8000F0B581B015460E460446FEF7EDFA281A45
:103E90008719FEF7E9FA40F21C01C2F20001096835
:103EA000C1F3CB317943009121688A68120626D587
:103EB0000546701C07D118E0009801380090206872
:103EC000806800061BD5FEF7CFFA401BB84219D216
:103ED00000980028F0D10027206880680006F2D4FE
:103EE0000DE000BF8868000609D58868000606D581
:103EF0008868000644BF88685FEA0060F2D400204A
:103F000001B0F0BDD4E900014268B1F5827F22F032
:103F1000E00242600AD1A168B1F5004F02D0B1F5CC
:103F2000806F03D1016821F040010160A16AB1F501
:103F3000005F07D1016821F400510160016841F47C
:103F400000510160012020660020E065032001B0DF
:103F5000F0BD000070470000FEF792BA4EF68850A0
:103F6000CEF2000001684FF4E02241F470010160DC
:103F70004FF0B04001684FF6FB6341F00101016072
:103F80009421C5F6000141F88C2C0268CFF6F62387
:103F90001A4002600A6822F005020A604A6822F0AC
:103FA00001024A6041F20002C2F2042241F8882C68
:103FB00041F8842C026822F480220260002041F83B
:103FC0007C0C7047816A0A070CD4CA0715D18A078E
:103FD0001ED44A0727D4CA0630D48A0639D44A06E2
:103FE00042D457E00268D0F838C0536823F4004345
:103FF00043EA0C035360CA07E9D00268D0F82CC02A
:10400000536823F4003343EA0C0353608A07E0D576
:104010000268D0F830C0536823F4803343EA0C03BD
:1040200053604A07D7D50268D0F834C0536823F4E8
:10403000802343EA0C035360CA06CED50268D0F849
:104040003CC0936823F4805343EA0C0393608A06D0
:10405000C5D50268D0F840C0936823F4005343EA02
:104060000C0393604A0615D5D0F800C0436CDCF809
:104070000420B3F5801F22F4801242EA0302CCF838
:10408000042007D1DCF80420836C22F4C0021A4318
:10409000CCF80420090658BF70470168C06C4A6814
:1040A00022F400221043486070470000B0B582B08F
:1040B00004460020C4F89000FEF7D6F921680546B2
:1040C0000A68120737D56FF07E4C20464FF4001176
:1040D00000222B46CDF800C000F0BAF950B300BF63
:1040E000206850E8000F216820F0800041E80002BD
:1040F000DAB1206850E8000F216820F0800041E824
:10410000000292B1206850E8000F216820F0800082
:1041100041E800024AB1206850E8000F216820F011
:10412000800041E80002002ADAD103202021882201
:104130006BE000BF2168086840075DD56FF07E4CDA
:1041400020464FF4800100222B46CDF800C000F03D
:104150007FF9002850D000BF206850E8000F216888
:1041600020F4907041E80002BAB3206850E8000FD4
:10417000216820F4907041E8000272B3206850E892
:10418000000F216820F4907041E800022AB32068F3
:1041900050E8000F216820F4907041E80002002AE6
:1041A000DAD11AE0206850E8020F216820F00100FF
:1041B00041E80202DAB1206850E8020F216820F0DD
:1041C000010041E8020292B1206850E8020F216824
:1041D00020F0010041E802024AB1206850E8020FD5
:1041E000216820F0010041E80202002ADAD1032010
:1041F00020218C2209E000BF2020C4F88800C4F8E8
:104200008C00002170220020E166A1500021C4F83A
:10421000841002B0B0BD000070B5054605F1080479
:104220001ECC0068194341EA0403EE69046846F6AF
:10423000F311CCF6FF71214019433143016041680D
:1042400048F2000E21F4405111434160AA69C4F2C2
:10425000000E70451CBF296A0A4381684FF2FF4374
:10426000C1F2FF13194011438160C16AD5F824C01F
:1042700021F00F0141EA0C017045C1620CD043F6F8
:104280000001C4F2010188422CD18821C5F6000149
:104290000A686BA306E000BF8821C5F60001096823
:1042A00063A38A0A02F0030153F82120704542F209
:1042B0000040C0F2F4001CD0013AB6F5004F29D1FD
:1042C000072A4FF0010100F2AA80DFE802F0057131
:1042D000A861A8A8A86F00BFFEF7F6FC002840F070
:1042E0005B8098E01022704542F20040C0F2F4007A
:1042F000E2D1082A4FF0010100F29180DFE802F0DC
:10430000068F248F1A8F8F8F220000BFFEF7C8FC04
:10431000A0B980E0072A4FF0010100F28080DFE8B9
:1043200002F005657E3F7E7E7E6300BFFEF7CCFC1B
:10433000C8BB70E0FEF7DCFC00286CD0D5F824C0C8
:1043400002E000BF4FF4004048F60011C0F6010142
:1043500031F81C106A68B0FBF1F002EB42018842B0
:104360004FF001015BD31303984258D8010E0002AD
:1043700010EB520041F100010023FCF729F84FF641
:104380000052A0F54071C0F20F02914241D345E0C6
:10439000FEF7AEFC00283ED0D5F824C008E000BFF0
:1043A000FEF7A6FCB8B3D5F824C01FE04FF40040D8
:1043B00048F60011C0F6010131F81C106A68B0FB24
:1043C000F1F0510801EB4000B0FBF2F04FF6EF7254
:1043D000A0F11001914221D84FF6F0710140C0F3D5
:1043E0004200084415E000BF4FF4004048F60011B9
:1043F000C0F6010131F81C104FF6EF72B0FBF1F07E
:10440000696800EB5100B0FBF1F0A0F1100191429E
:1044100004D82968C860002101E000BF01214FF0E5
:104420000110A866002208466A67AA6770BD00BF2F
:10443000000000000400000002000000080000006E
:10444000010000000400000002000000080000005D
:104450002DE9F041804600681546C2690E461140BC
:10446000891BB1FA81F149098D4223D1069C2CB3F5
:10447000611C29D1C1693140891BB1FA81F1490917
:104480008D4217D1C1693140891BB1FA81F14909C7
:104490008D420FD1C1693140891BB1FA81F14909BF
:1044A0008D4207D1C1693140891BB1FA81F14909B7
:1044B0008D42DFD00020BDE8F08100BFFDF7D4FFC2
:1044C0000320BDE8F08100BF1F4607E0C06930400F
:1044D000801BB0FA80F040098542EBD1FDF7C4FFA4
:1044E000C01BA04200F2AE80D8F800000168490766
:1044F000ECD5402EEAD0802EE8D0C169090700F142
:10450000A580C1690905E1D54FF400610162D8F8C1
:10451000000050E8000FD8F8001020F4907041E837
:1045200000020AB3D8F8000050E8000FD8F80010D5
:1045300020F4907041E80002B2B1D8F8000050E8D1
:10454000000FD8F8001020F4907041E800025AB132
:10455000D8F8000050E8000FD8F8001020F4907050
:1045600041E80002002AD2D14FF6FE70CEF6FF706D
:10457000D8F8001051E8021FD8F80020014042E8A6
:104580000213F3B1D8F8001051E8021FD8F8002048
:10459000014042E80213A3B1D8F8001051E8021F0D
:1045A000D8F80020014042E8021353B1D8F80010B7
:1045B00051E8021FD8F80020014042E80213002B06
:1045C000D6D1D8F86C0001282CD1D8F8000050E8DA
:1045D000000FD8F8001020F0100041E800020AB3E4
:1045E000D8F8000050E8000FD8F8001020F01000B4
:1045F00041E80002B2B1D8F8000050E8000FD8F846
:10460000001020F0100041E800025AB1D8F8000074
:1046100050E8000FD8F8001020F0100041E8000228
:10462000002AD2D120200021C8F88C00C8F86C10D4
:10463000C8F87410C8F890000320C8F88410BDE8CA
:10464000F08100BF0320BDE8F08100BF08210162B6
:10465000D8F8000050E8000FD8F8001020F490704F
:1046600041E800020AB3D8F8000050E8000FD8F87B
:10467000001020F4907041E80002B2B1D8F80000B8
:1046800050E8000FD8F8001020F4907041E80002C4
:104690005AB1D8F8000050E8000FD8F8001020F404
:1046A000907041E80002002AD2D14FF6FE70CEF69B
:1046B000FF70D8F8001051E8021FD8F80020014020
:1046C00042E80213F3B1D8F8001051E8021FD8F8FD
:1046D0000020014042E80213A3B1D8F8001051E8CD
:1046E000021FD8F80020014042E8021353B1D8F865
:1046F000001051E8021FD8F80020014042E80213E0
:10470000002BD6D1D8F86C0001282CD1D8F80000A5
:1047100050E8000FD8F8001020F0100041E8000227
:104720000AB3D8F8000050E8000FD8F8001020F0C5
:10473000100041E80002B2B1D8F8000050E8000FC4
:10474000D8F8001020F0100041E800025AB1D8F863
:10475000000050E8000FD8F8001020F0100041E8E9
:104760000002002AD2D12020C8F88C0000200821A5
:10477000C8F86C00C8F87400C8F89010C8F8840035
:104780000120BDE8F0810000FEE70000B0B582B076
:1047900001AD01212A4604460EF03CFA20460121D3
:1047A00000220EF08BF928460EF042FB044668B951
:1047B00040F22030C2F200000569BDF804304DF22D
:1047C000BB0204A1C0F601020020A847204602B0A7
:1047D000B0BD00BF63616C6962726174696F6E5FC6
:1047E000613132315F63616C5F73657373696F6EE2
:1047F000000000002DE9F0410D46DDE90678322188
:104800001C4606460EF0F8FC3046294600221223CC
:104810000DF0A0FE30F8041B218030F8021CC8F80F
:1048200000003980BDE8F08170B51C461546049E35
:10483000002241230DF08EFE018C28602230218061
:10484000306070BD10B51446002220230DF082FEAA
:10485000206010BD10B51446002250230DF07AFEE2
:10486000206010BD10B5144600224FF440730DF0C7
:1048700071FE206010BD000010B5144600224FF4F8
:1048800040730DF067FE206010BD000010B51446A7
:10489000002210230DF05EFE206010BD10B51446FE
:1048A000002260230DF056FE206010BDB0B51C46FE
:1048B000154600224FF49C630DF04CFE286000F575
:1048C00040702060B0BD00002DE9F04F85B0174664
:1048D0009A4688468146002404AA03AB0846394616
:1048E000CDE903440DF024FF48460EF015FB0028E7
:1048F00072D003984FF0000B40F64C311FFA8BF644
:10490000049C8F1BB84238BF07460CF0DBFC6FF0ED
:10491000020101EA460108447A08214604F04CFAF3
:104920000CF0D6FCBAF802C003461C20BDB20090C1
:10493000204631462A46CDF804C004F0B1FB0028D9
:1049400043D00CF0C5FCBAF804C003461A2000900E
:10495000204631462A46CDF804C004F0A1FBB0B38E
:104960000CF0B6FCBAF806C003461B2000902046A7
:1049700031462A46CDF804C004F092FB48B30CF04F
:10498000A7FCBAF808C0034619200090204631461B
:104990002A46CDF804C004F083FBE0B17108484614
:1049A00042463B460DF054FE039840F64C32834499
:1049B0001FFA8BF1914240F64C319FD348464FF499
:1049C000AE710EF037FB044606E0002404E000243C
:1049D00002E0002400E00024204605B0BDE8F08F8E
:1049E00070B584B00C4605460CF06CFC06460CF025
:1049F0006FFC034642F21960C0F6010025210091C8
:104A00000290284631460022019404F09DFA28467F
:104A100040F2332104B0BDE870400EF00BBB000043
:104A20002DE9F04184B015460E4604460CF04AFCD0
:104A300007460CF04DFC034642F219682620C0F6EA
:104A40000108CDE90006204639460022CDF808804D
:104A500004F07AFA0CF036FC06460CF039FC0346FA
:104A600024200090204631460022CDF80880019590
:104A700004F06AFA204640F2C62104B0BDE8F041D5
:104A80000EF0D8BA40F215310EF0D4BA2DE9F0414B
:104A900084B015460E4604460CF014FC07460CF094
:104AA00017FC3188034642F219680720C0F6010856
:104AB000CDE90001204639460022CDF8088004F0F7
:104AC00043FA0CF0FFFB06460CF002FC03460820FC
:104AD000CDE90005204631460022CDF8088004F0DB
:104AE00033FA0CF0EFFB05460CF0F2FB0346032013
:104AF0000921CDE90010204629460022CDF8088082
:104B000004F022FA0CF0DEFB05460CF0E1FB034654
:104B100006200A21CDE90010204629460022CDF8C2
:104B2000088004F011FA204640F2D63104B0BDE806
:104B3000F0410EF07FBA0000F0B583B00D46044698
:104B40000CF0C0FB06460CF0C3FB2988034642F27A
:104B500019672120C0F60107CDE900012046314642
:104B60000022029704F0F0F90CF0ACFB06460CF0C2
:104B7000AFFB698803462220CDE90001204631467B
:104B80000022029704F0E0F90CF09CFB06460CF0C2
:104B90009FFBE98803460120CDE90001204631460C
:104BA0000022029704F0D0F90CF08CFB06460CF0C2
:104BB0008FFB298903460220CDE9000120463146BA
:104BC0000022029704F0C0F90CF07CFB06460CF0C2
:104BD0007FFBA98903460320CDE900012046314629
:104BE0000022029704F0B0F90CF06CFB06460CF0C2
:104BF0006FFBE98903460420CDE9000120463146D8
:104C00000022029704F0A0F90CF05CFB06460CF0C1
:104C10005FFB698A03460520CDE900012046314645
:104C20000022029704F090F90CF04CFB06460CF0C1
:104C30004FFBA98A03460620CDE9000120463146F4
:104C40000022029704F080F9204640F2ED3103B0D3
:104C5000BDE8F0400EF0EEB970B584B00C460546E4
:104C60000CF030FB06460CF033FB034642F21960B1
:104C7000C0F601000C210091029028463146002226
:104C8000019404F061F9284640F2174104B0BDE8F0
:104C900070400EF0CFB90000F0B583B00D46044669
:104CA0000CF010FB06460CF013FB034642F21967AA
:104CB0000B20C0F601078DE8A100204631460022F6
:104CC000002604F041F90CF0FDFA05460CF000FB5B
:104CD00003460920CDE90006204629460022029716
:104CE00004F032F90CF0EEFA05460CF0F1FA034646
:104CF0007E200A21CDE90010204629460022029795
:104D000004F022F9204640F2534103B0BDE8F040E0
:104D10000EF090B940F27C410EF08CB970B580EA8B
:104D2000E032A2EBE0320FFA82FC81EAE132A2EB40
:104D3000E13214B2A4452246C8BF62466AB1234696
:104D4000A445B8BF634612B21B04B3FBF2FE43F6A0
:104D50002942964503D200221FE000222EE046F2AF
:104D6000D732964501D2012217E048F673029645E4
:104D700001D2022211E04AF64A42964501D20322AC
:104D80000BE04DF2A402964501D2042205E04FF259
:104D90004C7306229E4538BF052248F61813C0F60C
:104DA000010303EBC2050FA653F8323056F8222058
:104DB0006D68AEEB03035A4305EB124249F21F2321
:104DC000C0F20103A445B8BF9A1A42F23F43C0F2B1
:104DD0000303002848BF9A1A002948BF52421046D0
:104DE00070BD00BF70FB0000F3E80000F6D20000C9
:104DF000C0BB0000DCA40000E58E00003382000090
:104E0000002904BF0020704770B548F2203E0129F8
:104E1000CEF6B85E06D14FF0FF320023C90700F08E
:104E2000908064E021F00102C2F1000C4FF0FF32EB
:104E30006FF00103C418A578E4786A408EEA520541
:104E4000D60708BF55088EEA5502EE0708BF6A0864
:104E50008EEA5205D60708BF55088EEA5502EE07BE
:104E600008BF6A088EEA5205D60708BF55088EEAC1
:104E70005502EE0708BF6A088EEA5205D60708BF3A
:104E800055088EEA5502EE0708BF6A0862408EEAAE
:104E90005204D50708BF54088EEA5402E50708BF3C
:104EA00062088EEA5204D50708BF54088EEA5402FD
:104EB000E50708BF62088EEA5204D50708BF540808
:104EC0008EEA5402E50708BF62088EEA5204D5074D
:104ED00008BF54088EEA54020233E50708BF62088F
:104EE0000CEB03040234A5D10233C90729D0C05CFE
:104EF00050408EEA5001C20708BF41088EEA5100B7
:104F0000CA0708BF48088EEA5001C20708BF410817
:104F10008EEA5100CA0708BF48088EEA5001C2074E
:104F200008BF41088EEA5100CA0708BF48088EEA48
:104F30005001C20708BF41088EEA5102C80708BFE6
:104F40004A08D04370BD0000B0B512886FF01F054D
:104F500002F01F0EC2F344140EF1300E303405EB94
:104F600092220EFB00F000EB90604A436143DDF8B3
:104F700010C0800902EBD26201EB916100EB52108C
:104F800089091880ACF80010B0BD0000BEEE082AF8
:104F90009FED2D3A30EE020AB7EE005A9FED2B6AD4
:104FA00020EE030AB6EE004A30EE855A31EE021AC0
:104FB00030EE040A25EE065A21EE031AB3EE0F2A4C
:104FC00035EE045A31EE041AB4EE420A9FED214A3E
:104FD000F1EE10FAC8BFB0EE420AB5EE400AF1EEAB
:104FE00010FAB4EE445A9FED1A3AB8BFB0EE430A35
:104FF000F1EE10FAC8BFB0EE445AB5EE405ABDEE1D
:10500000C00AF1EE10FAB4EE421A10EE101AB8BF50
:10501000B0EE435ABDEEC50AF1EE10FAC8BFB0EECD
:10502000421AB5EE401A10EE102AF1EE10FAB8BF8F
:10503000B0EE431ABDEEC10A10EE103A41EA8221E9
:1050400041EA4311018070470000804200000042A5
:105050000000000000007C42F0B581B02DED108B07
:105060000F4604463AB1042A02F003000AD29FED2B
:10507000E58A00212AE09FEDE3FAB0EE4F9AB0EE08
:105080004F8AA8E09FEDDF8A22F00303A4F13006E7
:10509000002100BF96ED0C0A96ED0F1A96ED122A2C
:1050A00020EE000A96ED153A30EE080A21EE011ABC
:1050B00031EE000A22EE021A31EE000A23EE031A44
:1050C0000431303631EE008A8B42E3D1C8B101EBB6
:1050D000410104EB810191ED000A012820EE000A54
:1050E00030EE088A0DD091ED030A022820EE000A66
:1050F00030EE088A05D091ED060A20EE000A30EE67
:10510000088A3AB1511E032909D29FEDBE9A0023A5
:10511000A8BB54E09FEDBBFAB0EE4F9A5BE022F0E3
:1051200003069FEDB89A04F128037642002500BFDC
:1051300013ED0A0A13ED091A13ED062A20EE010AEF
:1051400013ED071A30EE090A21EE021A13ED042AB4
:1051500013ED033A31EE000A13ED011A93ED004A04
:1051600022EE032A32EE000A21EE041A043D31EE4B
:10517000009AAE4203F13003DAD16B42F8B103EB8F
:10518000430304EB830393ED000A93ED011A012816
:1051900020EE010A30EE099A11D093ED030A93ED47
:1051A000041A022820EE010A30EE099A07D093ED86
:1051B000060A93ED071A20EE010A30EE099A42B171
:1051C00003297BD29FED8FAA0023002840F0A58001
:1051D000C3E09FED8CFAB0EE4FDAB0EE4FBAB0EE0E
:1051E0004FAAB0EE4FCAB0EE4FEAF0EE4F8A18EE7B
:1051F000100A11F0E7FC00284FF0000654D0F7EE3B
:1052000000AA8AEE888A69EE489A29EE890A30EE69
:105210000BBA1BEE100A11F0D5FC002846D08AEE1E
:105220008BBA6AEE48AA2AEE8A0A29EE8A1A30EE6A
:105230000D0A31EE0CDA2AEE891A31EE0C1A61EE03
:105240004BBA2BEE8D1A31EE00CA1CEE100A11F08B
:10525000B9FC68B329EE8E0A30EE0F0A2BEE801AE5
:1052600031EE281A2AEE8E2A32EE011A81EE0C1A3D
:10527000B1EE492AB1EE4A3A01202DEE014A30EE54
:10528000440A2BEE000A22EE002A32EE0E2A23EE0A
:10529000013A33EE022A28EE022A87ED002A87ED32
:1052A000010A87ED021A04E0002002E0002000E07D
:1052B00000202660BDEC108B01B0F0BD22F003068B
:1052C0009FED50AA04F12C037642002513ED0B0A42
:1052D00013ED091A13ED082A20EE010A13ED061A40
:1052E00030EE0A0A13ED053A22EE011A13ED032AF5
:1052F00031EE000A93ED001A13ED024A23EE022A62
:1053000032EE000A24EE011A043D31EE00AAAE424C
:1053100003F13003DAD16B42F8B103EB430304EB42
:10532000830393ED000A93ED021A012820EE010A8F
:1053300030EE0AAA11D093ED030A93ED051A022864
:1053400020EE010A30EE0AAA07D093ED060A93ED8B
:10535000081A20EE010A30EE0AAA2AB103290AD25D
:105360009FEDD4BA00232AE09FEDD2FAB0EE4FDAD7
:10537000B0EE4FBA35E79FEDCFBA22F00306A4F1A5
:105380003005002395ED0D0A95ED101A95ED132AC1
:1053900020EE000A95ED163A30EE0B0A21EE011AC6
:1053A00031EE000A22EE021A31EE000A23EE031A51
:1053B000043331EE00BA9E4205F13005E2D1C8B1A6
:1053C00003EB430304EB830393ED010A012820EE72
:1053D000000A30EE0BBA0DD093ED040A022820EE3D
:1053E000000A30EE0BBA05D093ED070A20EE000A52
:1053F00030EE0BBA42B103290BD29FEDAECA0023A7
:1054000036E000BF000000009FEDAAFAB0EE4FDAD0
:10541000E7E622F003069FEDA7CA04F12C037642CB
:10542000002500BF13ED0A0A13ED091A13ED062A31
:1054300020EE010A13ED071A30EE0C0A21EE021AD3
:1054400013ED042A13ED033A31EE000A13ED011AAD
:1054500093ED004A22EE032A32EE000A21EE041AEE
:10546000043D31EE00CAAE4203F13003DAD16B42A3
:10547000F8B103EB430304EB830393ED010A93EDCF
:10548000021A012820EE010A30EE0CCA11D093ED69
:10549000040A93ED051A022820EE010A30EE0CCA28
:1054A00007D093ED070A93ED081A20EE010A30EEBB
:1054B0000CCA2AB1032908D29FED7EDA002328E026
:1054C0009FED7CFAB0EE4FDA8DE69FED7ADA22F0AE
:1054D0000306A4F13005002395ED0E0A95ED111A8F
:1054E00095ED142A20EE000A95ED173A30EE0D0ADC
:1054F00021EE011A31EE000A22EE021A31EE000A04
:1055000023EE031A043331EE00DA9E4205F1300532
:10551000E2D1C8B103EB430304EB830393ED020A2A
:10552000012820EE000A30EE0DDA0DD093ED050AC9
:10553000022820EE000A30EE0DDA05D093ED080ABD
:1055400020EE000A30EE0DDA2AB1032906D29FEDD3
:1055500059EA00231EE09FED57FA44E69FED55EA15
:1055600022F00306A4F13005002300BF95ED0C0ADC
:1055700095ED0F1A95ED122A3EEE000A95ED153ABB
:1055800030EE010A30EE020A0433303530EE03EA21
:105590009E42EBD198B103EB430304EB830393EDFD
:1055A000000A01283EEE00EA09D093ED030A022822
:1055B0003EEE00EA1CBF93ED060A3EEE00EA2AB179
:1055C000032906D29FED3BFA00231EE09FED39FA36
:1055D0000BE69FED38FA22F00306A4F13005002314
:1055E00095ED0D0A95ED101A95ED132A3FEE000A80
:1055F00095ED163A30EE010A30EE020A043330EE31
:1056000003FA9E4205F13005EAD198B103EB43035A
:1056100004EB830393ED010A01283FEE00FA09D061
:1056200093ED040A02283FEE00FA1CBF93ED070A2F
:105630003FEE00FA2AB1032906D2DFED1E8A0021CF
:105640001FE0DFED1C8AD2E5DFED1A8A22F00302AB
:10565000A4F13003002100BF93ED0E0A93ED111A5F
:1056600093ED142A38EE800A93ED173A30EE010AD2
:1056700030EE020A043170EE038A8A4203F13003ED
:10568000EAD100283FF4B3AD01EB410104EB810105
:1056900091ED020A012878EE808A3FF4A8AD91EDE1
:1056A000050A022878EE808A1CBF91ED080A78EE80
:1056B000808A9CE50000000040F2E51148434FF667
:1056C000EE61CFF6FF7101EB104070472DE9F04F0E
:1056D000ADF57F7D0DF11C0900911FAD09F10801A9
:1056E00042F23F4A49F6051B44F67E0806463FA8AB
:1056F00005F1080705910021C0F2030ACAF2F92B4F
:10570000C0F20608039700BF00240490019100BF77
:1057100006EB840136F92400B1F90210FFF7FEFA16
:1057200045F824000134182CF2D1002406EB840142
:10573000B1F96000B1F96210FFF7F0FA49F82400FE
:105740000134182CF2D10296059E4DF6C13C002082
:105750000021CFF6FC7C00BF59F800302A5844F6EF
:105760007D0E9F1A5546C0F2060E5745B8BF3D46FE
:1057700003EB0E041544651BA5FB0B54A50C05FBA0
:10578000187705FB08256745D8BF6746EA19D71A79
:1057900018BF0127DC19121BA2FB0B24724607EB72
:1057A00094470EF1010E07FB0E3337185B1B48BF01
:1057B0005B42DDF80C9057F8047C09EB000555F8C6
:1057C000045C9942A7EB050407EB02065246D8BFDA
:1057D00019465445B8BF22462A44B21AA2FB0B26EA
:1057E000B20C02FB184602FB08526645D8BF66465B
:1057F0001644F51B18BF01257C19361BA6FB0B644C
:1058000005EB944606FB0E77CDF818E0DDF810E0C6
:10581000BF1A4EF8003048BF7F42059A59F8003051
:105820001258B942A2EB030644F67D095446D8BF8C
:105830003946C0F206095645B8BF344602EB0905A1
:105840001C442D1BA5FB0B54A50C05FB186605FB82
:1058500008336645D8BF66461E44B51A18BF0125F1
:105860005419361BA6FB0B6405EB9446069C4D466B
:1058700006FB04228644D41A0DF11C091FABCEF896
:10588000047009EB000203EB000748BF6442D268D2
:10589000FF68A142A2EB07065346D8BF21465645F2
:1058A000B8BF334615443B44EB1AA3FB0B35AB0C96
:1058B00003FB186503FB08736545D8BF65461D44A7
:1058C000AE1A18BF01269719ED1BA5FB0B5706EB67
:1058D0009745069FCEF8084005FB07221030D21AE4
:1058E00048BF52429142D8BF1146059E4DF6C13C79
:1058F00060281FADCFF6FC7CCEF80C207FF42CAFD7
:10590000019A480837A941F822001146029E0498DE
:10591000511CC036082900F160007FF4F5AE37AFA6
:1059200089CF002220EAE0713A9E8B42C4BF012257
:1059300019468F42C4BF394602228E42C8BF314643
:105940003B9BC8BF03228B42C8BF19463C9BC8BFC4
:1059500004228B42C8BF19463D9BC8BF05228B421B
:10596000C8BF19463E9BC8BF06228B42C8BF07224C
:1059700037A91FAE51F8221002EB42023FAB0020C4
:1059800003EB421C06F1180E6FF02F070CEB070516
:105990002A6B4FF000088A420CEB8002B8BF4FF030
:1059A00001083418D2E9013630378B424FF000033A
:1059B000B8BF012363706376D3688E424FF0000650
:1059C000B8BF01268B424FF00003A670A676166979
:1059D000B8BF0123E370E3766B6C8E424FF0000694
:1059E000B8BF01268B424FF0000326712677AE6CBC
:1059F000B8BF01236371637700238E42B8BF0123D0
:105A0000A371A377D2E907368B424FF00003B8BFEA
:105A10000123E371E37700238E42B8BF0123237291
:105A200084F82030D2E909321FAE8B424FF00003D8
:105A3000B8BF01238A424FF00002637284F821301C
:105A4000B8BF0122A27284F82220EA6D0EEB000397
:105A50008A424FF00002B8BF012206F800800EF81B
:105A600000800C30182803F80D2CDA728ED100213A
:105A70000420002202E000BF01310430331813F883
:105A8000037C1AB177B1013112E000BF7FB113F886
:105A9000042C002A4FF0000208BF012108BFC21EDB
:105AA00006E000BF0B2956D80022002100E00022AA
:105AB00013F8027C12B16FB1013111E07FB113F81C
:105AC000032C002A4FF0000208BF012108BF821EEC
:105AD00006E000BF0B293ED80022002100E0002292
